{
  "contractName": "EscrowSale",
  "abi": [
    {
      "constant": true,
      "inputs": [],
      "name": "creator",
      "outputs": [
        {
          "name": "",
          "type": "address"
        }
      ],
      "payable": false,
      "stateMutability": "view",
      "type": "function"
    },
    {
      "constant": false,
      "inputs": [
        {
          "name": "_id",
          "type": "bytes32"
        }
      ],
      "name": "buyerConfirmation",
      "outputs": [],
      "payable": false,
      "stateMutability": "nonpayable",
      "type": "function"
    },
    {
      "constant": false,
      "inputs": [
        {
          "name": "_id",
          "type": "bytes32"
        }
      ],
      "name": "depositToEscrow",
      "outputs": [
        {
          "name": "",
          "type": "bool"
        }
      ],
      "payable": true,
      "stateMutability": "payable",
      "type": "function"
    },
    {
      "constant": true,
      "inputs": [
        {
          "name": "",
          "type": "bytes32"
        }
      ],
      "name": "orderdata",
      "outputs": [
        {
          "name": "buyer",
          "type": "address"
        },
        {
          "name": "seller",
          "type": "address"
        },
        {
          "name": "arbitrator",
          "type": "address"
        },
        {
          "name": "amount",
          "type": "uint256"
        },
        {
          "name": "status",
          "type": "bool"
        },
        {
          "name": "used",
          "type": "bool"
        },
        {
          "name": "recieved",
          "type": "uint8"
        }
      ],
      "payable": false,
      "stateMutability": "view",
      "type": "function"
    },
    {
      "constant": false,
      "inputs": [
        {
          "name": "_id",
          "type": "bytes32"
        }
      ],
      "name": "refund",
      "outputs": [
        {
          "name": "",
          "type": "bool"
        }
      ],
      "payable": false,
      "stateMutability": "nonpayable",
      "type": "function"
    },
    {
      "constant": true,
      "inputs": [
        {
          "name": "",
          "type": "address"
        }
      ],
      "name": "adminlist",
      "outputs": [
        {
          "name": "",
          "type": "bool"
        }
      ],
      "payable": false,
      "stateMutability": "view",
      "type": "function"
    },
    {
      "constant": false,
      "inputs": [
        {
          "name": "_newadmin",
          "type": "address"
        }
      ],
      "name": "addMember",
      "outputs": [
        {
          "name": "",
          "type": "bool"
        }
      ],
      "payable": false,
      "stateMutability": "nonpayable",
      "type": "function"
    },
    {
      "constant": false,
      "inputs": [
        {
          "name": "_id",
          "type": "bytes32"
        },
        {
          "name": "_seller",
          "type": "address"
        },
        {
          "name": "_arbitrator",
          "type": "address"
        },
        {
          "name": "_amount",
          "type": "uint256"
        },
        {
          "name": "orderId",
          "type": "bytes32"
        }
      ],
      "name": "paybackToBuyer",
      "outputs": [],
      "payable": true,
      "stateMutability": "payable",
      "type": "function"
    },
    {
      "inputs": [
        {
          "name": "_id",
          "type": "bytes32"
        }
      ],
      "payable": true,
      "stateMutability": "payable",
      "type": "function",
      "constant": false,
      "name": "finalizeOrder",
      "outputs": []
    },
    {
      "anonymous": false,
      "inputs": [
        {
          "indexed": false,
          "name": "_buyer",
          "type": "address"
        },
        {
          "indexed": false,
          "name": "_seller",
          "type": "address"
        },
        {
          "indexed": false,
          "name": "_arbitrator",
          "type": "address"
        },
        {
          "name": "_amount",
          "type": "uint256"
        },
        {
          "name": "orderId",
          "type": "bytes32"
        }
      ],
      "name": "createEscrow",
      "type": "function",
      "constant": false,
      "outputs": [
        {
          "name": "",
          "type": "bool"
        }
      ],
      "payable": false,
      "stateMutability": "nonpayable"
    },
    {
      "anonymous": false,
      "inputs": [
        {
          "indexed": false,
          "name": "orderid",
          "type": "bytes32"
        },
        {
          "indexed": false,
          "name": "_seller",
          "type": "address"
        },
        {
          "indexed": false,
          "name": "_buyer",
          "type": "address"
        }
      ],
      "name": "NotifyConfirmation",
      "type": "constructor",
      "payable": false,
      "stateMutability": "nonpayable"
    },
    {
      "anonymous": false,
      "inputs": [
        {
          "indexed": false,
          "name": "orderid",
          "type": "bytes32"
        },
        {
          "indexed": false,
          "name": "_amount",
          "type": "uint256"
        },
        {
          "indexed": false,
          "name": "_buyer",
          "type": "address"
        }
      ],
      "name": "NotifySeller",
      "type": "event"
    },
    {
      "anonymous": false,
      "inputs": [
        {
          "indexed": false,
          "name": "orderid",
          "type": "bytes32"
        },
        {
          "indexed": false,
          "name": "_seller",
          "type": "address"
        },
        {
          "indexed": false,
          "name": "_buyer",
          "type": "address"
        }
      ],
      "name": "NotifyConfirmation",
      "type": "event"
    },
    {
      "anonymous": false,
      "inputs": [
        {
          "indexed": false,
          "name": "orderid",
          "type": "bytes32"
        },
        {
          "indexed": false,
          "name": "_amount",
          "type": "uint256"
        },
        {
          "indexed": false,
          "name": "_buyer",
          "type": "address"
        },
        {
          "indexed": false,
          "name": "_seller",
          "type": "address"
        }
      ],
      "name": "NotifyForPayback",
      "type": "event"
    }
  ],
  "bytecode": "0x6060604052341561000f57600080fd5b336000806101000a81548173ffffffffffffffffffffffffffffffffffffffff021916908373ffffffffffffffffffffffffffffffffffffffff1602179055506111ca8061005e6000396000f3006060604052600436106100a4576000357c0100000000000000000000000000000000000000000000000000000000900463ffffffff16806302d05d3f146100a95780631b8d4648146100fe5780631f6cc32b14610125578063632071fe146101595780637249fbb6146102505780638831597f14610277578063ca6d56dc146102c8578063d0eb1b3314610319578063fab20c6614610335578063fc19e53f14610351575b600080fd5b34156100b457600080fd5b6100bc6103f6565b604051808273ffffffffffffffffffffffffffffffffffffffff1673ffffffffffffffffffffffffffffffffffffffff16815260200191505060405180910390f35b341561010957600080fd5b61012360048080356000191690602001909190505061041b565b005b61013f60048080356000191690602001909190505061062d565b604051808215151515815260200191505060405180910390f35b341561016457600080fd5b61017e6004808035600019169060200190919050506107b2565b604051808873ffffffffffffffffffffffffffffffffffffffff1673ffffffffffffffffffffffffffffffffffffffff1681526020018773ffffffffffffffffffffffffffffffffffffffff1673ffffffffffffffffffffffffffffffffffffffff1681526020018673ffffffffffffffffffffffffffffffffffffffff1673ffffffffffffffffffffffffffffffffffffffff16815260200185815260200184151515158152602001831515151581526020018260ff1660ff16815260200197505050505050505060405180910390f35b341561025b57600080fd5b61027560048080356000191690602001909190505061087b565b005b341561028257600080fd5b6102ae600480803573ffffffffffffffffffffffffffffffffffffffff16906020019091905050610a3f565b604051808215151515815260200191505060405180910390f35b34156102d357600080fd5b6102ff600480803573ffffffffffffffffffffffffffffffffffffffff16906020019091905050610a5f565b604051808215151515815260200191505060405180910390f35b610333600480803560001916906020019091905050610b78565b005b61034f600480803560001916906020019091905050610c8f565b005b341561035c57600080fd5b6103dc600480803573ffffffffffffffffffffffffffffffffffffffff1690602001909190803573ffffffffffffffffffffffffffffffffffffffff1690602001909190803573ffffffffffffffffffffffffffffffffffffffff1690602001909190803590602001909190803560001916906020019091905050610e46565b604051808215151515815260200191505060405180910390f35b6000809054906101000a900473ffffffffffffffffffffffffffffffffffffffff1681565b60016000826000191660001916815260200190815260200160002060000160009054906101000a900473ffffffffffffffffffffffffffffffffffffffff1673ffffffffffffffffffffffffffffffffffffffff163373ffffffffffffffffffffffffffffffffffffffff1614151561049357600080fd5b600060016000836000191660001916815260200190815260200160002060040160029054906101000a900460ff1660ff161415156104d057600080fd5b6001806000836000191660001916815260200190815260200160002060040160026101000a81548160ff021916908360ff1602179055507fb8e35319c2dc2593ab027dd186c26280130ebee8e94451cb3ab2ad17a4c8a4248160016000846000191660001916815260200190815260200160002060010160009054906101000a900473ffffffffffffffffffffffffffffffffffffffff1660016000856000191660001916815260200190815260200160002060000160009054906101000a900473ffffffffffffffffffffffffffffffffffffffff166040518084600019166000191681526020018373ffffffffffffffffffffffffffffffffffffffff1673ffffffffffffffffffffffffffffffffffffffff1681526020018273ffffffffffffffffffffffffffffffffffffffff1673ffffffffffffffffffffffffffffffffffffffff168152602001935050505060405180910390a150565b60006001151560016000846000191660001916815260200190815260200160002060040160009054906101000a900460ff1615151514151561066e57600080fd5b60016000836000191660001916815260200190815260200160002060000160009054906101000a900473ffffffffffffffffffffffffffffffffffffffff1673ffffffffffffffffffffffffffffffffffffffff163373ffffffffffffffffffffffffffffffffffffffff161415156106e657600080fd5b600160008360001916600019168152602001908152602001600020600301543414151561071257600080fd5b6001806000846000191660001916815260200190815260200160002060040160006101000a81548160ff0219169083151502179055506000809054906101000a900473ffffffffffffffffffffffffffffffffffffffff1673ffffffffffffffffffffffffffffffffffffffff166108fc349081150290604051600060405180830381858888f1935050505015156107a957600080fd5b60019050919050565b60016020528060005260406000206000915090508060000160009054906101000a900473ffffffffffffffffffffffffffffffffffffffff16908060010160009054906101000a900473ffffffffffffffffffffffffffffffffffffffff16908060020160009054906101000a900473ffffffffffffffffffffffffffffffffffffffff16908060030154908060040160009054906101000a900460ff16908060040160019054906101000a900460ff16908060040160029054906101000a900460ff16905087565b60016000826000191660001916815260200190815260200160002060000160009054906101000a900473ffffffffffffffffffffffffffffffffffffffff1673ffffffffffffffffffffffffffffffffffffffff163373ffffffffffffffffffffffffffffffffffffffff161415156108f357600080fd5b7f9af1a61f0444d5c2d1a2ce87849f258c4f010fd6f5b1c81b3a1461baff13e341816001600084600019166000191681526020019081526020016000206003015460016000856000191660001916815260200190815260200160002060000160009054906101000a900473ffffffffffffffffffffffffffffffffffffffff1660016000866000191660001916815260200190815260200160002060010160009054906101000a900473ffffffffffffffffffffffffffffffffffffffff166040518085600019166000191681526020018481526020018373ffffffffffffffffffffffffffffffffffffffff1673ffffffffffffffffffffffffffffffffffffffff1681526020018273ffffffffffffffffffffffffffffffffffffffff1673ffffffffffffffffffffffffffffffffffffffff16815260200194505050505060405180910390a150565b60026020528060005260406000206000915054906101000a900460ff1681565b60008060009054906101000a900473ffffffffffffffffffffffffffffffffffffffff1673ffffffffffffffffffffffffffffffffffffffff163373ffffffffffffffffffffffffffffffffffffffff161415610b735760011515600260008473ffffffffffffffffffffffffffffffffffffffff1673ffffffffffffffffffffffffffffffffffffffff16815260200190815260200160002060009054906101000a900460ff16151514151515610b1657600080fd5b6001600260008473ffffffffffffffffffffffffffffffffffffffff1673ffffffffffffffffffffffffffffffffffffffff16815260200190815260200160002060006101000a81548160ff021916908315150217905550600190505b919050565b60016000826000191660001916815260200190815260200160002060020160009054906101000a900473ffffffffffffffffffffffffffffffffffffffff1673ffffffffffffffffffffffffffffffffffffffff163373ffffffffffffffffffffffffffffffffffffffff16141515610bf057600080fd5b60016000826000191660001916815260200190815260200160002060000160009054906101000a900473ffffffffffffffffffffffffffffffffffffffff1673ffffffffffffffffffffffffffffffffffffffff166108fc600160008460001916600019168152602001908152602001600020600301549081150290604051600060405180830381858888f193505050501515610c8c57600080fd5b50565b60016000826000191660001916815260200190815260200160002060020160009054906101000a900473ffffffffffffffffffffffffffffffffffffffff1673ffffffffffffffffffffffffffffffffffffffff163373ffffffffffffffffffffffffffffffffffffffff16141515610d0757600080fd5b6001806000836000191660001916815260200190815260200160002060040160029054906101000a900460ff1660ff16141515610d4357600080fd5b3460016000836000191660001916815260200190815260200160002060030154141515610d6f57600080fd5b600260016000836000191660001916815260200190815260200160002060040160026101000a81548160ff021916908360ff16021790555060016000826000191660001916815260200190815260200160002060010160009054906101000a900473ffffffffffffffffffffffffffffffffffffffff1673ffffffffffffffffffffffffffffffffffffffff166108fc600160008460001916600019168152602001908152602001600020600301549081150290604051600060405180830381858888f193505050501515610e4357600080fd5b50565b6000610e50611117565b60016000846000191660001916815260200190815260200160002060040160019054906101000a900460ff16151515610e8857600080fd5b60011515600260008773ffffffffffffffffffffffffffffffffffffffff1673ffffffffffffffffffffffffffffffffffffffff16815260200190815260200160002060009054906101000a900460ff161515141515610ee757600080fd5b86816000019073ffffffffffffffffffffffffffffffffffffffff16908173ffffffffffffffffffffffffffffffffffffffff168152505085816020019073ffffffffffffffffffffffffffffffffffffffff16908173ffffffffffffffffffffffffffffffffffffffff168152505084816040019073ffffffffffffffffffffffffffffffffffffffff16908173ffffffffffffffffffffffffffffffffffffffff16815250508381606001818152505060018160a00190151590811515815250508060016000856000191660001916815260200190815260200160002060008201518160000160006101000a81548173ffffffffffffffffffffffffffffffffffffffff021916908373ffffffffffffffffffffffffffffffffffffffff16021790555060208201518160010160006101000a81548173ffffffffffffffffffffffffffffffffffffffff021916908373ffffffffffffffffffffffffffffffffffffffff16021790555060408201518160020160006101000a81548173ffffffffffffffffffffffffffffffffffffffff021916908373ffffffffffffffffffffffffffffffffffffffff1602179055506060820151816003015560808201518160040160006101000a81548160ff02191690831515021790555060a08201518160040160016101000a81548160ff02191690831515021790555060c08201518160040160026101000a81548160ff021916908360ff160217905550905050600191505095945050505050565b60e060405190810160405280600073ffffffffffffffffffffffffffffffffffffffff168152602001600073ffffffffffffffffffffffffffffffffffffffff168152602001600073ffffffffffffffffffffffffffffffffffffffff16815260200160008152602001600015158152602001600015158152602001600060ff16815250905600a165627a7a723058201a47f0dce777e272decd699f5181c28be13cfb2a75fd14ab8cbf6f9331f89e550029",
  "source": "// jshint ignore: start\npragma solidity ^0.4.14;\n\n\ncontract EscrowSale {\n\tstruct OrderDetails{\n\t\taddress buyer;\n\t\taddress seller;\n\t\taddress arbitrator;\n\t\tuint amount;\n\t\tbool status;\n\t\tbool used;\n\t\tuint8 recieved;\n\t\t//bool recieved;\n\t}\n\taddress public creator;\n\tmapping(bytes32 => OrderDetails)public orderdata;\n\tmapping(address => bool) public adminlist;\n\n\tfunction EscrowSale() public {\n\t\tcreator = msg.sender;\n\t}\n\n\tmodifier onlyCreator {  // only creator of contract is allowed to add admin\n\t\tif (msg.sender == creator)\n\t\t_;\n\t}\n\t\n\tevent NotifySeller(bytes32 orderid, uint _amount, address _buyer);\n\tevent NotifyConfirmation(bytes32 orderid,address _seller, address _buyer);\n\tevent NotifyForPayback(bytes32 orderid, uint _amount, address _buyer, address _seller);\n\n\tfunction addMember(address _newadmin) public onlyCreator returns(bool){\n\t\trequire(adminlist[_newadmin] != true);\n\t\tadminlist[_newadmin] = true;\n\t\treturn true;\n\t}\n\n\tfunction createEscrow(address _buyer,\n\t\taddress _seller,\n\t\taddress _arbitrator,\n\t\tuint _amount,\n\t\tbytes32 orderId) public returns(bool){\n\t\trequire(!orderdata[orderId].used);\n\t\trequire(adminlist[_arbitrator] == true);\n\t\tOrderDetails memory sd;\n\t\tsd.buyer = _buyer;\n\t\tsd.seller = _seller;\n\t\tsd.arbitrator = _arbitrator;\n\t\tsd.amount = _amount;\n\t\tsd.used = true;\n\n\t\torderdata[orderId] = sd;\n\t\treturn true;\n\t}\n\n\tfunction depositToEscrow(bytes32 _id) public payable returns (bool){\n\t\trequire(!orderdata[_id].status == true);\n\t\trequire(msg.sender == orderdata[_id].buyer);\n\t    require(msg.value == orderdata[_id].amount);\n\n\t\torderdata[_id].status = true; \n\t\tcreator.transfer(msg.value);\n\t\t//NotifySeller(_id, orderdata[_id].amount, orderdata[_id].buyer);\n\t\treturn true;\n\t\t\n\t}\n\n\tfunction buyerConfirmation(bytes32 _id) public {\n\t\trequire(msg.sender == orderdata[_id].buyer);\n\t\trequire(orderdata[_id].recieved == 0);\n\n\t\torderdata[_id].recieved = 1;\n\t\tNotifyConfirmation(_id,orderdata[_id].seller,orderdata[_id].buyer);\n\t}\n\n\tfunction finalizeOrder(bytes32 _id) public payable {\n\t\trequire(msg.sender == orderdata[_id].arbitrator);\n\t\trequire(orderdata[_id].recieved == 1);\n\t\trequire(orderdata[_id].amount == msg.value);\n\n\t\torderdata[_id].recieved = 2;\n\t\torderdata[_id].seller.transfer(orderdata[_id].amount);\n\t}\n\n\tfunction refund(bytes32 _id) public {\n\t\trequire(msg.sender == orderdata[_id].buyer);\n\t\tNotifyForPayback(_id,orderdata[_id].amount, orderdata[_id].buyer,orderdata[_id].seller);\n\t}\n\n\tfunction paybackToBuyer(bytes32 _id) public payable {\n\t\trequire(msg.sender == orderdata[_id].arbitrator);\n\t\torderdata[_id].buyer.transfer(orderdata[_id].amount);\n\t}\n}",
  "sourcePath": "/home/salusn/Escrow/contracts/EscrowSale.sol",
  "compiler": {
    "name": "solc",
    "version": "0.4.18+commit.9cf6e910.Emscripten.clang"
  },
  "schemaVersion": "1.0.1",
  "updatedAt": "2017-12-29T08:32:19.792Z"
}